//Logon
8=FIX.4.2|9=77|35=A|49=SENDER|56=TARGET|34=26|52=20100526-14:50:49.829|98=0|108=30|9318=LIGHT|10=168|
// New Light Order no NBBO 
8=FIX.4.2|9=164|35=D|49=SENDER|56=TARGET|34=86|52=20100526-15:20:32.168|11=ABC1234|21=1|55=IBM|48=87654321|54=1|60=20100526-15:20:32.168|38=100|40=2|44=1.5|59=3|77=C|9369=0|9317=1|9321=USRASGID|10=227|
// New Light Order with NBBO 
8=FIX.4.2|9=164|35=D|49=SENDER|56=TARGET|34=86|52=20100526-15:20:32.168|11=ABC1234|21=1|55=IBM|48=87654321|54=1|60=20100526-15:20:32.168|38=100|40=2|44=1.5|59=3|77=C|9369=0|9317=1|9321=USRASGID|9384=Y|10=227|
// Cancel by class
8=FIX.4.2|9=125|35=F|49=SENDER|56=TARGET|34=113|52=20100526-15:33:51.908|41=[N/A]|11=ABC1234|55=IBM|54=1|60=20100526-15:33:51.908|9317=1|530=1|10=026|
// Cancel by series
8=FIX.4.2|9=137|35=F|49=SENDER|56=TARGET|34=117|52=20100526-15:35:51.002|41=[N/A]|11=ABC1234|55=[N/A]|54=1|60=20100526-15:35:51.002|9317=1|530=3|48=987654|10=152|
// Cancel individual light order
8=FIX.4.2|9=133|35=F|49=SENDER|56=TARGET|34=118|52=20100526-15:37:19.956|41=ABC1233|11=ABC1234|55=[N/A]|54=1|60=20100526-15:37:19.956|9317=1|48=987654|10=213|
